:20F8000010CE7FFFCE6FFF86031F8BBDF8ADBDFAC68EFE9486013F863BBDF8C78E01001F6D
:20F8200010BDFA71BDFA68108E00081F10BDFA71BDFA68BDF9E31F20BDFA71BDFA681F1007
:20F84000BDFA71863BBDF8C7BDFAC68602C6808E02003F86018E02003FBDFB2DBDFB3325DE
:20F86000EABDFB8220E53402847FB1000D260A0C228601971E86FF97230C23358234029FD4
:20F8800020A684971F0C1F8601971E35820F200F210F1F3934169E202711D61ED11F250B30
:20F8A000BDFA689623A18526F70C1E35963402867FB7D0128636B7D0118626B7D013BDF815
:20F8C0008D0F230F2235828109260220C78D973406F6D012C5802BF98A80B7D0123586B635
:20F8E000D01185802AF9B6D010847F39862EBDF8C70F05BDF8DFBDF8C7A7800C055AC10185
:20F900002F04810D26ED8600A784393410BDFBAEEC84BDF9C825021CFE35903410BDFBAEE1
:20F92000EC81BDF9C8250F3402EC81BDF9C825061F8935021CFE3590BDFB752509DD06BDA3
:20F94000FB752502DD0839BDFB33251A81012709BDF90B2516A7A020EE8D111F89A680A7B2
:20F96000A05A26F920E11CFE109F0C39341086FF4C6D8026FB35903432A680A1A026034D34
:20F9800026F735B23436BDF96C1F89A680A7A05A26F935B634028D081F89350244444444A4
:20F9A000840F8B90198940193981302D1881392E05840F1CFE3981412D0B81462E078041E5
:20F9C0008B0A1CFE391A0139BDF9A934021F98BDF9A9484848481F8935025949594959495B
:20F9E0005949393437C60A34045F4F68656964594910A3662504A3666C656AE426EDED66FF
:20FA0000326135B734168658BDF8C7863DBDF8C71F10BDFA713596343634018643BDF8C77E
:20FA20008643BDF8C7863DBDF8C78EFE09108E00083504A680592502862DBDF8C7313F2663
:20FA4000F235B634061E898641BDF8C7863DBDF8C71E89BDFA7D358634061F98BDFA7D3576
:20FA6000863406BDFA71358634068620BDF8C735863406BDFA7D1F98BDFA7D358634061767
:20FA8000FF1217FE421F9817FE3D358634061F89862E17FE321F9817FE2D17FFCB35863494
:20FAA000168E02001F10BDFA71863ABDF8C7BDFA685FA6805CD1052708BDFA7DBDFA682095
:20FAC000F1BDFAC635163406860DBDF8C735863412A6802705BDF8C720F735923406DC065B
:20FAE000BDFA7135863436108EFB23A680272281252619A6805F6DA5271BA1A527035C20E4
:20FB0000F58EFB275810AEA5ADA420DF17FDB820DA1CFE35961A013596862516FDA9DC243D
:20FB200016FFAC82256DCDFB19FB1EFB1E8E02009F003934249E0086009704A6802722816E
:20FB400022272281202FF41F12313FA68081202EFA6F8230019F001F219F0296041CFE355B
:20FB6000A41A0135A4860197041F12A68027E2812227DE20F6BDFB332507BDF91B25021C82
:20FB8000FE39108EFE24BDFBAE6DA427149E02BDF9772705BDFBA420F0BDFBA410AE3E6E91
:20FBA000A41A01391F21BDF96C31A631233934165FA68027158122271181612508817B2472
:20FBC000048020A71F5CD10523E735960F1C0F1D0F1B0A1B390F1B390D1B270B34061F8936
:20FBE0004FD31CDD1C3506394F3F8101260417FEDE3B8102260417FCF33B34028EFE7C17AF
:20FC0000FECD350217FE7617FEBC3B8EFE6A17FEBE3B8EFE7317FEB73B8EFE5117FEB03B64
:20FC20008EFE5917FEA93B8EFE4917FEA23BBDF9382523109E06863ABDFA8C1F20BDFA71CB
:20FC4000BDFA6834208D1235208D1CBDFAC6109C0823E31CFE391A0139C608A6A0BDFA7D6E
:20FC6000BDFA685A26F539C608A6A081202C02862EBDF8C75A26F239BDFB751F02BDF947AE
:20FC800025021CFE39BDFB332509BDF91B25F51F01AD8439BDF9382545108E0280BDF947E7
:20FCA000253C9E06301F9F06C6089E0630019F06108E02809C08241DA680A1A026EC9C08E1
:20FCC0002413109C0C25E3BDFADCBDFA685A26DABDFAC620D3C1082703BDFAC61CFE39BD31
:20FCE000F9382520108E0280BDF94725179E06108E0280A6A0A7809C082207109C0C25F367
:20FD000020ED1CFE390F10BDFB752532DD06BDFB75252B9306DD0EBDFB752522DD089E06FF
:20FD2000109E089C082715220E0A101F10D30E1F011F20D30E1F02DC0EBDFD3F1CFE393408
:20FD4000363402A684A7A40D102606300131212004301F313F35028300012AE51CFE35B644
:20FD6000BDFB75254EDD06BDFB7525479306DD0EBDFB75253EDD089E06109E089C08273118
:20FD800086089711DC0E3406A680A1A027131F10BDFA71BDFA680A112A07BDFAC686089704
:20FDA0001135068300012ADE961181082703BDFAC61CFE390F14BDFB752504DD180A14BDF8
:20FDC000F8EC0F1ABDFDED25031CFE393986012016860220128603200E8604200A8605202E
:20FDE000068606200286071A01393939393414D61A8E0200A685270B5CD71AC18027041CC9
:20FE0000FE35941A0135943400454648494E5A56C3BAFDEAD3FDEBBBFDEC004845585331BD
:20FE2000394D4F534300FD604600FCDF4700FC854800FC944C00FDB44D00FC2E5400FD056F
:20FE40003A00FC785800FBE8002A4E4D492A0D0A002A4952512A0D0A002A464952512A0D80
:20FE60000A002A5357492A0D0A002A535749322A0D0A002A535749332A0D0A00556E64656D
:20FE800066696E65642073797374656D2063616C6C2024005245504C4943412031203638B8
:20FEA0003039204D4F4E49544F520D0A0045584954494E472E2E2E0D0A0044554D50494EF4
:20FEC000472E2E2E0D0A00FED7FED9FEECFEFEFF13FF26FF3BFF514F4B4241442048455881
:20FEE000205245434F524420545950454E4F20484558205245434F5244205459504542415B
:20FF00004420254D205245434F524420414444524553534E4F20254D205245434F524420D8
:20FF20004C454E4754484E4F20254D205245434F524420434845434B53554D424144202572
:20FF40004D205245434F524420434845434B53554D42414420254D205245434F5244204466
:03FF6000415441C8
:10FFF0000000FC12FC0BFC20FC19FBEAFC27F800BB
:00F8000107
